{
  "contractName": "Population",
  "abi": [
    {
      "inputs": [],
      "payable": false,
      "stateMutability": "nonpayable",
      "type": "constructor"
    },
    {
      "constant": true,
      "inputs": [],
      "name": "countryName",
      "outputs": [
        {
          "internalType": "string",
          "name": "",
          "type": "string"
        }
      ],
      "payable": false,
      "stateMutability": "view",
      "type": "function"
    },
    {
      "constant": true,
      "inputs": [],
      "name": "currentPopulation",
      "outputs": [
        {
          "internalType": "uint256",
          "name": "",
          "type": "uint256"
        }
      ],
      "payable": false,
      "stateMutability": "view",
      "type": "function"
    },
    {
      "constant": true,
      "inputs": [],
      "name": "currentVaccinated",
      "outputs": [
        {
          "internalType": "uint256",
          "name": "",
          "type": "uint256"
        }
      ],
      "payable": false,
      "stateMutability": "view",
      "type": "function"
    },
    {
      "constant": false,
      "inputs": [
        {
          "internalType": "string",
          "name": "name",
          "type": "string"
        },
        {
          "internalType": "uint256",
          "name": "popCount",
          "type": "uint256"
        }
      ],
      "name": "set",
      "outputs": [],
      "payable": false,
      "stateMutability": "nonpayable",
      "type": "function"
    },
    {
      "constant": false,
      "inputs": [
        {
          "internalType": "string",
          "name": "name",
          "type": "string"
        },
        {
          "internalType": "uint256",
          "name": "popCount",
          "type": "uint256"
        },
        {
          "internalType": "uint256",
          "name": "vaccinatedCount",
          "type": "uint256"
        }
      ],
      "name": "setAll",
      "outputs": [],
      "payable": false,
      "stateMutability": "nonpayable",
      "type": "function"
    },
    {
      "constant": false,
      "inputs": [
        {
          "internalType": "uint256",
          "name": "decrementBy",
          "type": "uint256"
        }
      ],
      "name": "decrement",
      "outputs": [],
      "payable": false,
      "stateMutability": "nonpayable",
      "type": "function"
    },
    {
      "constant": false,
      "inputs": [
        {
          "internalType": "uint256",
          "name": "incrementBy",
          "type": "uint256"
        }
      ],
      "name": "increment",
      "outputs": [],
      "payable": false,
      "stateMutability": "nonpayable",
      "type": "function"
    },
    {
      "constant": false,
      "inputs": [
        {
          "internalType": "uint256",
          "name": "incrementBy",
          "type": "uint256"
        }
      ],
      "name": "incrementVaccinated",
      "outputs": [],
      "payable": false,
      "stateMutability": "nonpayable",
      "type": "function"
    },
    {
      "constant": false,
      "inputs": [
        {
          "internalType": "uint256",
          "name": "decrementBy",
          "type": "uint256"
        }
      ],
      "name": "decrementVaccinated",
      "outputs": [],
      "payable": false,
      "stateMutability": "nonpayable",
      "type": "function"
    }
  ],
  "bytecode": "0x608060405234801561001057600080fd5b506040518060400160405280600781526020017f556e6b6e6f776e000000000000000000000000000000000000000000000000008152506000908051906020019061005c929190610072565b5060006001819055506000600281905550610117565b828054600181600116156101000203166002900490600052602060002090601f016020900481019282601f106100b357805160ff19168380011785556100e1565b828001600101855582156100e1579182015b828111156100e05782518255916020019190600101906100c5565b5b5090506100ee91906100f2565b5090565b61011491905b808211156101105760008160009055506001016100f8565b5090565b90565b6105dc806101266000396000f3fe608060405234801561001057600080fd5b50600436106100b0576000357c010000000000000000000000000000000000000000000000000000000090048063704113b311610083578063704113b3146101b257806378634456146101d05780637cf5dab0146101fe5780638a42ebe91461022c57806394c11e65146102f1576100b0565b80633a9ebefd146100b55780633f829957146100e3578063440d5ba61461016657806367e5f41f14610194575b600080fd5b6100e1600480360360208110156100cb57600080fd5b81019080803590602001909291905050506103c0565b005b6100eb6103d3565b6040518080602001828103825283818151815260200191508051906020019080838360005b8381101561012b578082015181840152602081019050610110565b50505050905090810190601f1680156101585780820380516001836020036101000a031916815260200191505b509250505060405180910390f35b6101926004803603602081101561017c57600080fd5b8101908080359060200190929190505050610471565b005b61019c610484565b6040518082815260200191505060405180910390f35b6101ba61048a565b6040518082815260200191505060405180910390f35b6101fc600480360360208110156101e657600080fd5b8101908080359060200190929190505050610490565b005b61022a6004803603602081101561021457600080fd5b81019080803590602001909291905050506104a3565b005b6102ef6004803603604081101561024257600080fd5b810190808035906020019064010000000081111561025f57600080fd5b82018360208201111561027157600080fd5b8035906020019184600183028401116401000000008311171561029357600080fd5b91908080601f016020809104026020016040519081016040528093929190818152602001838380828437600081840152601f19601f820116905080830192505050505050509192919290803590602001909291905050506104b6565b005b6103be6004803603606081101561030757600080fd5b810190808035906020019064010000000081111561032457600080fd5b82018360208201111561033657600080fd5b8035906020019184600183028401116401000000008311171561035857600080fd5b91908080601f016020809104026020016040519081016040528093929190818152602001838380828437600081840152601f19601f82011690508083019250505050505050919291929080359060200190929190803590602001909291905050506104d8565b005b8060016000828254039250508190555050565b60008054600181600116156101000203166002900480601f0160208091040260200160405190810160405280929190818152602001828054600181600116156101000203166002900480156104695780601f1061043e57610100808354040283529160200191610469565b820191906000526020600020905b81548152906001019060200180831161044c57829003601f168201915b505050505081565b8060026000828254019250508190555050565b60025481565b60015481565b8060026000828254039250508190555050565b8060016000828254019250508190555050565b81600090805190602001906104cc929190610502565b50806001819055505050565b82600090805190602001906104ee929190610502565b508160018190555080600281905550505050565b828054600181600116156101000203166002900490600052602060002090601f016020900481019282601f1061054357805160ff1916838001178555610571565b82800160010185558215610571579182015b82811115610570578251825591602001919060010190610555565b5b50905061057e9190610582565b5090565b6105a491905b808211156105a0576000816000905550600101610588565b5090565b9056fea265627a7a72315820650dea57291325b3cf4b1229b6961443abbb1c339584001f18e4ad49bc12970b64736f6c63430005100032",
  "source": "pragma solidity^0.5.9 ;\n\ncontract Population{\n    string public countryName ;\n    uint public currentPopulation ;\n    uint public currentVaccinated ;\n\n\n    constructor() public{\n        countryName = \"Unknown\" ;\n        currentPopulation = 0 ;\n        currentVaccinated = 0;\n    }\n\n    function set(string memory name, uint popCount) public{\n        countryName = name ;\n        currentPopulation = popCount ;\n\n    }\n    function setAll(string memory name, uint popCount, uint vaccinatedCount) public{\n        countryName = name ;\n        currentPopulation = popCount ;\n        currentVaccinated  = vaccinatedCount;\n    }\n\n    function decrement(uint decrementBy) public{\n        currentPopulation -= decrementBy ;\n    }\n\n\n    function increment(uint incrementBy) public{\n        currentPopulation += incrementBy ;\n    }\n\n\n    function incrementVaccinated(uint incrementBy) public{\n        currentVaccinated += incrementBy ;\n    }\n    function decrementVaccinated(uint decrementBy) public{\n        currentVaccinated -= decrementBy ;\n    }\n\n}",
  "sourcePath": "/Users/satyananda/Documents/code/blockchain/Flutter-Blockchain/population/contracts/Population.sol",
  "compiler": {
    "name": "solc",
    "version": "0.5.16+commit.9c3226ce.Emscripten.clang"
  },
  "schemaVersion": "3.4.3",
  "updatedAt": "2021-10-30T11:54:48.686Z",
  "networkType": "ethereum",
  "devdoc": {
    "methods": {}
  },
  "userdoc": {
    "methods": {}
  }
}